:020000040800F2
:1000000000000220F10B0008BD0B0008BF0B000828
:10001000C10B0008C30B0008C50B0008000000005E
:10002000000000000000000000000000C70B0008F6
:10003000C90B000800000000CB0B0008CD0B000826
:10004000410C0008410C0008410C0008410C00085C
:10005000410C0008410C0008410C0008410C00084C
:10006000410C0008410C0008410C0008410C00083C
:10007000410C0008410C0008410C0008410C00082C
:10008000410C0008410C0008410C00080000000071
:10009000000000000000000000000000410C00080B
:1000A000410C0008410C0008410C0008410C0008FC
:1000B000410C0008410C0008410C0008410C0008EC
:1000C000410C0008410C0008410C0008410C0008DC
:1000D000410C0008410C0008410C00080000000021
:1000E000410C0008410C0008410C00080000000011
:1000F000000000000000000000000000410C0008AB
:1001000000000000410C0008410C0008410C0008F0
:1001100000000000000000000000000000000000DF
:10012000410C0008410C0008410C0008DD0B0008E0
:10013000410C00080000000000000000000000006A
:10014000000000000000000000000000410C00085A
:10015000410C0008410C0008410C0008410C00084B
:10016000410C0008410C00080000000000000000E5
:10017000000000000000000000000000000000007F
:1001800000000000410C000800000000000000001A
:08019000410C0008410C0008BD
:1001C00010B5054C237833B9044B13B10448AFF391
:1001D00000800123237010BDCC040020000000002B
:1001E000BC9F020808B5034B1BB103490348AFF39A
:1001F000008008BD00000000D0040020BC9F020861
:1002000053B94AB9002908BF00281CBF4FF0FF317D
:100210004FF0FF3000F074B9ADF1080C6DE904CE79
:1002200000F006F8DDF804E0DDE9022304B07047D1
:100230002DE9F047089E0D4604468846002B4DD117
:100240008A42944668D9B2FA82F252B101FA02F3B4
:10025000C2F1200120FA01F10CFA02FC41EA030884
:1002600094404FEA1C45210CB8FBF5FE1FFA8CF7B1
:1002700005FB1E8341EA03430EFB07F199420BD9AC
:100280001CEB03030EF1FF3080F01E81994240F217
:100290001B81AEF1020E63445B1AA4B2B3FBF5F00E
:1002A00005FB103344EA034400FB07F7A7420AD9D1
:1002B0001CEB040400F1FF3380F00881A74240F2F8
:1002C000058164440238E41B40EA0E4000211EB15F
:1002D000D4400023C6E90043BDE8F0878B4208D92B
:1002E000002E00F0EE800021C6E900050846BDE8BA
:1002F000F087B3FA83F100294AD1AB4202D382429C
:1003000000F2F980841A65EB030301209846002E61
:10031000E2D0C6E90048DFE702B9FFDEB2FA82F2B6
:10032000002A40F09180A1EB0C054FEA1C471FFA10
:100330008CFE0121B5FBF7F307FB1350250C45EAB2
:1003400000450EFB03F0A84208D91CEB050503F19C
:10035000FF3802D2A84200F2CB8043462D1AA4B245
:10036000B5FBF7F007FB105544EA05440EFB00FE11
:10037000A64508D91CEB040400F1FF3502D2A645BE
:1003800000F2BB802846A4EB0E0440EA03409EE73F
:10039000C1F120078B4022FA07FC4CEA030C20FA3B
:1003A00007F405FA01F31C43FD404FEA1C4900FA2B
:1003B00001F3B5FBF9F8200C1FFA8CFE09FB185568
:1003C00040EA054508FB0EF0A84202FA01F20BD9FB
:1003D0001CEB050508F1FF3A80F08880A84240F246
:1003E0008580A8F1020865442D1AA4B2B5FBF9F086
:1003F00009FB105544EA054500FB0EFEAE4508D941
:100400001CEB050500F1FF346CD2AE456AD9023809
:10041000654440EA0840A0FB0294A5EB0E05A54206
:10042000C846A64656D353D05EB1B3EB080265EB7F
:100430000E0505FA07F722FA01F3CD401F43C6E97E
:1004400000750021BDE8F087C2F1200320FA03F116
:100450000CFA02FC25FA03F395400D434FEA1C47C2
:100460001FFA8CFEB3FBF7F107FB11302B0C43EAAC
:10047000004301FB0EF0984204FA02F408D91CEB89
:10048000030301F1FF382FD298422DD9023963447A
:100490001B1AADB2B3FBF7F007FB103345EA034577
:1004A00000FB0EF3AB4208D91CEB050500F1FF3849
:1004B00016D2AB4214D902386544ED1A40EA014124
:1004C00038E73146304607E78646E5E61846FAE65D
:1004D0004B45A9D2B9EB020864EB0C0E0138A3E737
:1004E0004046EAE7204694E74146D1E7D0467BE71D
:1004F000023B654432E7084609E76444023842E7B4
:10050000704700BF00000000000000000000000075
:1005100000000000000000000000000000000000DB
:10052000A2EB0300704700BF02780B78012A28BFB6
:100530009A42F5D16DE9044540EA0104CDE902672C
:100540006FF0000C4FEA447212B380EA010414F019
:10055000070F6AD100F0070420F0070004F003053C
:1005600021F007014FEAC505F0E8042314F0040F59
:10057000F1E804670CFA05F462EA040266EA04068C
:100580000AD063EA0403624667EA0407664603E0AA
:10059000F0E80423F1E8046782FA4CF582EA0604E5
:1005A000A4FA8CF46CBB83FA4CF583EA0705A5FA30
:1005B0008CF595B950E9022351E9026782FA4CF5AE
:1005C00082EA0604A4FA8CF483FA4CF583EA070560
:1005D000A5FA8CF52543DBD09CB92DBAB5FA85F484
:1005E00024F0070427FA04F1DDE9026723FA04F393
:1005F00003F0FF0001F0FF01FDE80445A0EB01005E
:10060000704724BAB4FA84F424F0070426FA04F1FB
:10061000DDE9026722FA04F202F0FF0001F0FF01B7
:10062000FDE80445A0EB0100704714F0030F3CD136
:1006300010F0030428D150F8082B51F8083B82FA37
:100640004CF582EA0305A5FA8CF55DB950F8042C47
:1006500051F8043C82FA4CF582EA0305A5FA8CF5C0
:10066000002DE8D02DBAB5FA85F424F0070423FA5A
:1006700004F122FA04F202F0FF0001F0FF01FDE8AC
:100680000445A0EB010070474FEAC40420F00300CA
:1006900050F8082B21F0030151F8083B0CFA04F440
:1006A00062EA040263EA0403C9E710F003041AD003
:1006B000A1EB040120F00300E40750F8042B06D05E
:1006C0000FD28B785FFAA2F4E41A06D12BB1CB7863
:1006D0005FFAB2F4E41A00D11BB920465DF8104B62
:1006E000704701F1040150F8042BCC0721F00301FD
:1006F00051F8043B48D824D222F07F4482FA4CF5CA
:1007000094EA1325A5FA8CF50AD165B951F8043B92
:1007100084EA0204B4EB036F0ED150F8042BEBE72C
:100720004FEA132355E035F07F454DD10878FDE8B9
:100730000445C0F1000070474FEA126203F0FF0366
:1007400047E002EA1C4482FA4CF594EA1345A5FA04
:100750008CF50AD165B951F8043B84EA0204B4EB84
:10076000034F0CD150F8042BEBE74FEA134330E072
:1007700015EA1C4528D10B884FEA124229E04FEABE
:10078000124203EA1C4324E002F0FF0482FA4CF513
:1007900094EA1365A5FA8CF50AD165B951F8043BC2
:1007A00084EA0204B4EB032F09D150F8042BEBE7E1
:1007B0004FEA13630DE015F0FF0F05D10B684FEA08
:1007C000122223F07F4304E04FF00000FDE80445CF
:1007D000704712BA1BBA82FA4CF482EA0304A4FAF4
:1007E0008CF5B5FA85F402FA04F203FA04F34FEA41
:1007F0001260FDE80445A0EB1360704700000000A4
:1008000090F800F06DE9024520F007016FF0000C50
:1008100010F0070491F820F040F049804FF00004F8
:100820006FF00700D1E9002391F840F000F10800D3
:1008300082FA4CF2A4FA8CF283FA4CF3A2FA8CF30B
:100840004BBBD1E9022382FA4CF200F10800A4FA72
:100850008CF283FA4CF3A2FA8CF3E3B9D1E90423C6
:1008600082FA4CF200F10800A4FA8CF283FA4CF3FD
:10087000A2FA8CF37BB9D1E9062301F1200182FAB7
:100880004CF200F10800A4FA8CF283FA4CF3A2FABD
:100890008CF3002BC6D0002A04BF04301A4612BACB
:1008A000B2FA82F2FDE8024500EBD2007047D1E9CE
:1008B000002304F00305C4F100004FEAC50514F05D
:1008C000040F91F840F00CFA05F562EA05021CBF2E
:1008D00063EA050362464FF00004A9E700B583B060
:1008E00000220192094B196B41F4800119631B6BC3
:1008F00003F480030193019B08213B2000F01AFAC6
:100900003B2000F04FFA03B05DF804FB00380240D2
:1009100070B588B000240394049405940694079459
:100920000194194B1A6B42F080021A631A6B02F0A1
:1009300080020192019A02941A6B42F001021A633A
:100940001B6B03F001030293029B104D012240F246
:100950001251284600F030FD4FF4897303930126AD
:1009600004960596069403A9284600F045FC4FF42A
:100970008063039304960594069403A9284600F027
:100980003BFC08B070BD00BF0038024000000240D0
:1009900072B6FEE700B595B03022002108A829F014
:1009A000EDF90023039304930593069307930193B2
:1009B000244A116C41F080511164126C02F0805293
:1009C0000192019A0293204A116841F4404111605A
:1009D000126802F440420292029A012203920493A6
:1009E000052103A800F03CFF30BB012308934FF41E
:1009F0008033099302230E934FF480020F920C224E
:100A000010926022119212930423139308A800F00D
:100A1000D9FC98B90F230393022304930023059371
:100A20004FF4805206920793032103A800F018FFA9
:100A300030B915B05DF804FBFFF7AAFFFFF7A8FF78
:100A4000FFF7A6FF003802400070004008B500F034
:100A50001FF9FFF79FFFFFF75BFFFFF73FFF00F076
:100A600015F801F069FC02F0E1FD01F08BFA1CF0D1
:100A7000E5FF01F02CFD00224FF6000107F05CFBC2
:100A8000032000F031F91FF095FCF9E708B50E4896
:100A90000E4B03604FF48273436000238360C36096
:100AA0000222026143614FF4007282611022C2612E
:100AB0000362436283620A23C36201F01FF800B934
:100AC00008BDFFF765FFFBE7480500200030014047
:100AD00030B589B0002303930493059306930793DD
:100AE0000268244B9A4201D009B030BD044600256B
:100AF000019503F584335A6C42F480525A645A6C5F
:100B000002F480520192019A02951A6B42F001029E
:100B10001A631B6B03F001030293029BA023039350
:100B200002230493012305930323069305230793CC
:100B300003A9114800F060FB1048114B03604FF00F
:100B4000C063436040238360C5604FF480630361EA
:100B500045618561C5614FF480330362456200F0F1
:100B6000C1F918B9054BA3649C63BDE7FFF710FFFB
:100B7000F8E700BF0030014000000240E804002018
:100B80005864024082B0002100910B4B5A6C42F431
:100B900080425A645A6C02F480420092009A019199
:100BA0001A6C42F080521A641B6C03F0805301935C
:100BB000019B02B0704700BF00380240FEE7FEE72D
:100BC000FEE7FEE7FEE770477047704708B500F0A4
:100BD00079F801201CF09EFF08BD000008B502480E
:100BE00000F01CFA08BD00BFE804002070470000B8
:100BF000DFF834D00D480E490E4A002302E0D458E5
:100C0000C4500433C4188C42F9D30B4A0B4C002354
:100C100001E013600432A242FBD3FFF7E7FF29F0A3
:100C200089F8FFF713FF7047000002200000002042
:100C3000CC04002064E70208CC04002018490120FD
:100C4000FEE7000010B504460E4B18784FF47A7397
:100C5000B3FBF0F30C4A1068B0FBF3F000F0B0F80F
:100C600068B90F2C01D901200AE0002221464FF07B
:100C7000FF3000F05FF8054B1C60002000E0012011
:100C800010BD00BF0400002000000020080000206C
:100C900008B50B4B1A6842F400721A601A6842F4E5
:100CA00080621A601A6842F480721A60032000F0B1
:100CB0002FF80020FFF7C6FFFFF764FF002008BDF4
:100CC000003C0240034A1168034B1B780B4413603D
:100CD000704700BFA005002004000020014B1868E9
:100CE000704700BFA005002038B50446FFF7F6FFA7
:100CF0000546B4F1FF3F02D0044B1B781C44FFF7BC
:100D0000EDFF401BA042FAD338BD00BF0400002015
:100D1000074AD36823F4E0631B041B0C000200F4B1
:100D2000E060034343F0BF6343F40033D360704794
:100D300000ED00E000B5194BDB68C3F30223C3F1FB
:100D4000070CBCF1040F28BF4FF0040C03F1040E94
:100D5000BEF1060F18D9033B4FF0FF3E0EFA0CFC14
:100D600021EA0C0199400EFA03F322EA0303194326
:100D700000280BDB0901C9B200F1604000F56140B9
:100D800080F800135DF804FB0023E5E700F00F0096
:100D90000901C9B2024B1954F4E700BF00ED00E0AD
:100DA00014ED00E0002807DB00F01F0240090123DA
:100DB0009340024A42F82030704700BF00E100E053
:100DC0000138B0F1807F0BD24FF0E0235861054A23
:100DD000F02182F823100020986107221A617047E1
:100DE0000120704700ED00E030B405682C6824F461
:100DF00080242C60046863608368402B05D00368FE
:100E000099600368DA6030BC704703689A600368D1
:100E1000D960F8E710B40368D9B210390B4AA2FBC5
:100E2000014212090A4CA25CC2655F2908D923F469
:100E30007F7323F0030304338365806D10BC704718
:100E400023F47F7323F003038365F6E7ABAAAAAA12
:100E5000FC9F0208836A826992B9012B0AD0022B97
:100E600002D00BB100207047C36A13F0807F28D1F5
:100E700000207047C36AB3F1C07F24D000207047C0
:100E8000B2F5005F09D0022B25D9032B25D1C36A07
:100E900013F0807F23D100207047032B03D8DFE8B5
:100EA00003F01404140A00207047C36A13F0807F13
:100EB0000DD100207047C36AB3F1C07F09D0002074
:100EC00070470120704701207047012070470120C2
:100ED00070470120704701207047002070470120B3
:100EE0007047000070B50446FFF7F8FE002C5BD099
:100EF0000546022384F83530002384F83430226814
:100F0000136823F00103136023681A6812F0010FBD
:100F10000AD0FFF7E3FE431B052BF5D920236365B9
:100F2000032084F8350070BD1A68204810406168BD
:100F3000A2680A43E1680A4321690A4361690A43D6
:100F4000A1690A43E1690A43216A0A430243616ACB
:100F500004291ED01A602668756925F00705636AA2
:100F60001D43042B07D1A36A1D43E36A1BB120462E
:100F7000FFF770FF90B975612046FFF74BFFE26DF8
:100F80003F239340836000206065012384F835305F
:100F9000C9E7E16A206B01430A43DBE7402363654D
:100FA000012084F83500BEE70120BCE73F8010F047
:100FB00038B50446856D90F8340001282BD0012007
:100FC00084F8340094F83500C0B2012804D000231E
:100FD00084F83430022038BD022084F83500002027
:100FE00060652046FFF700FFE26D3F239340AB6052
:100FF0002268136843F016031360236C23B1226840
:10100000136843F0080313602268136843F0010378
:1010100013600020DFE70220DDE70000F0B583B0B9
:10102000044600230193724B1D68724BA3FB0535E8
:10103000AD0A876D3E68C26D08239340334210D0DD
:1010400003681A6812F0040F0BD01A6822F0040229
:101050001A60C26D08239340BB60436D43F00103E7
:101060004365E26D01239340334209D022685269FF
:1010700012F0800F04D0BB60636D43F00203636520
:10108000E26D04239340334209D02268126812F0C3
:10109000020F04D0BB60636D43F004036365E26D2F
:1010A00010239340334224D02268126812F0080FB4
:1010B0001FD0BB6023681A6812F4802F0DD01B6804
:1010C00013F4002F04D1236C9BB12046984710E005
:1010D000A36C73B1204698470BE01A6812F4807F26
:1010E00003D11A6822F008021A60236C0BB1204663
:1010F0009847E26D20239340334255D0226812680E
:1011000012F0100F50D0BB6094F83530DBB2052BD5
:101110000ED023681A6812F4802F33D01B6813F4A2
:10112000002F2AD1636C002B3ED0204698473BE02D
:101130002268136823F0160313602268536923F0B2
:1011400080035361236CA3B12268136823F0080362
:101150001360E26D3F239340BB60012384F8353078
:10116000002384F83430236D002B3FD0204698476D
:101170003CE0A36C002BE7D1EBE7E36BA3B1204687
:10118000984711E01A6812F4807F09D11A6822F09A
:1011900010021A60012384F83530002384F83430BB
:1011A000E36B0BB120469847636DFBB1636D13F0A1
:1011B000010F17D0052384F835302268136823F017
:1011C00001031360019B01330193AB4204D82368F0
:1011D0001B6813F0010FF5D1012384F8353000238B
:1011E00084F83430E36C0BB12046984703B0F0BD6F
:1011F00000000020B5814E1B00230F2B00F2D2808F
:1012000070B582B060E085685E000324B44025EAD2
:101210000405CC68B4402C438460456825EA020587
:101220004C68C4F300129A402A4342605AE0DC083A
:10123000083450F8246003F0070295000F22AA40FA
:1012400026EA020E0A69AA4042EA0E0240F8242069
:101250005CE0042200E0002202FA0EF22A4302348B
:10126000514D45F82420514A94686FEA0C0224EA53
:101270000C054E6816F4801F01D04CEA04054B4C57
:10128000A560E46802EA04054E6816F4001F01D068
:101290004CEA0405454CE560646802EA04054E68C2
:1012A00016F4003F01D04CEA0405404C6560246808
:1012B00022404D6815F4803F01D04CEA04023B4CBB
:1012C000226001330F2B6BD801229A400C6804EA8C
:1012D000020C32EA0404F4D14C6804F00304013C2B
:1012E000012C90D94A6802F00302032A09D0C4688D
:1012F0005D000322AA4024EA02048A68AA4022432D
:10130000C2604A6802F00302022A90D004684FEAE1
:10131000430E032202FA0EF224EA02044A6802F0A3
:10132000030202FA0EF2224302604A6812F4403FBE
:10133000C7D0002201921E4A546C44F48044546485
:10134000526C02F480420192019A9C08A51C164A34
:1013500052F8255003F003024FEA820E0F2202FAE0
:101360000EF225EA0205134A90423FF474AF02F5EB
:10137000806290420ED002F5806290420CD002F55D
:10138000806290420AD002F5806290423FF461AFE1
:10139000072261E701225FE702225DE703225BE7A4
:1013A00002B070BD704700BF00380140003C0140F2
:1013B00000380240000002400AB181617047090410
:1013C00081617047002800F0E08170B582B004466A
:1013D000036813F0010F3BD09F4B9B6803F00C0395
:1013E000042B2CD09C4B9B6803F00C03082B21D0C2
:1013F0006368B3F5803F4FD0B3F5A02F52D0964B22
:101400001A6822F480321A601A6822F480221A6064
:101410006368002B50D0FFF761FC05468E4B1B68BC
:1014200013F4003F14D1FFF759FC401B6428F5D991
:101430000320B1E1884B5B6813F4800FD8D0864B52
:101440001B6813F4003F03D06368002B00F09F81FA
:10145000236813F0020F54D07F4B9B6813F00C0FDE
:101460003ED07D4B9B6803F00C03082B33D0E36820
:10147000002B68D0794B01221A60FFF72FFC05463C
:10148000754B1B6813F0020F54D1FFF727FC401B6C
:101490000228F5D903207FE16F4A136843F48033B3
:1014A0001360B5E76C4B1A6842F480221A601A6820
:1014B00042F480321A60ABE7FFF710FC0546664B3A
:1014C0001B6813F4003FC3D0FFF708FC401B6428DF
:1014D000F5D9032060E1604B5B6813F4800FC6D13F
:1014E0005D4B1B6813F0020F03D0E368012B40F043
:1014F0005081594A136823F0F803216943EAC10374
:101500001360236813F0080F42D063696BB3534B29
:101510000122C3F8802EFFF7E1FB05464E4B5B6FBF
:1015200013F0020F34D1FFF7D9FB401B0228F5D985
:10153000032031E1484A136823F0F803216943EAA4
:10154000C1031360DDE7454B00221A60FFF7C6FBBD
:101550000546414B1B6813F0020FD2D0FFF7BEFBCC
:10156000401B0228F5D9032016E13C4B0022C3F8AA
:10157000802EFFF7B3FB0546374B5B6F13F0020F6E
:1015800006D0FFF7ABFB401B0228F5D9032003E18F
:10159000236813F0040F77D02F4B1B6C13F0805F80
:1015A00033D1002301932C4B1A6C42F080521A6401
:1015B0001B6C03F080530193019B0125284B1B6892
:1015C00013F4807F23D0A368012B34D0052B38D0AF
:1015D000214B1A6F22F001021A671A6F22F00402DF
:1015E0001A67A368002B3DD0FFF778FB06461A4B1D
:1015F0001B6F13F0020F46D1FFF770FB801B41F207
:1016000088339842F3D90320C6E00025D6E7144A70
:10161000136843F480731360FFF760FB0646104BBA
:101620001B6813F4807FCED1FFF758FB801B022884
:10163000F5D90320B0E0084A136F43F001031367A4
:10164000CFE7054B1A6F42F004021A671A6F42F097
:1016500001021A67C5E700BF003802400000474298
:1016600000700040FFF73AFB0646524B1B6F13F029
:10167000020F08D0FFF732FB801B41F288339842FB
:10168000F3D9032088E0EDB9A369002B00F0838033
:10169000484A926802F00C02082A51D0022B17D057
:1016A000454B00221A66FFF719FB0446414B1B68A5
:1016B00013F0007F42D0FFF711FB001B0228F5D981
:1016C000032069E03B4A136C23F080531364DBE78B
:1016D000394B00221A66FFF701FB0546354B1B68A4
:1016E00013F0007F06D0FFF7F9FA401B0228F5D966
:1016F000032051E0E369226A1343626A43EA8213DA
:10170000A26A5208013A43EA0243E26A43EA0263E8
:10171000284A5360284B01221A66FFF7DFFA044675
:10172000244B1B6813F0007F06D1FFF7D7FA001B8C
:101730000228F5D903202FE000202DE000202BE027
:10174000012B2BD01B4B5B6803F48001E2699142B3
:1017500026D103F03F02216A8A4223D1616A47F60B
:10176000C0721A40B2EB811F1ED103F44031A26A4D
:101770005208013AB1EB024F18D103F07063E26AEC
:10178000B3EB026F14D1002006E001207047012066
:1017900002E0012000E0002002B070BD0120FBE764
:1017A0000120F9E70120F7E70120F5E70120F3E741
:1017B0000120F1E7003802400000474208B5254B00
:1017C0009B6803F00C03042B3FD0082B3FD1214B27
:1017D0005A6802F03F025B6813F4800F12D01D4B71
:1017E0005968C1F388111C480023A1FB0001FEF7D2
:1017F00007FD184B5B68C3F3014301335B00B0FB8B
:10180000F3F025E0134B5968C1F3881C4FEA4C11E3
:10181000B1EB0C006EEB0E0E4FEA8E1343EA9063B1
:101820008101091A63EB0E03DB0043EA5173C9001F
:1018300011EB0C0C43F10003990200234FEA8C20BA
:1018400041EA9C51FEF7DCFCD3E7034800E0034883
:1018500008BD00BF0038024040787D010024F4003C
:10186000002800F09B8070B50D4604464F4B1B6866
:1018700003F007038B4208D2CBB24C4A13701368B3
:1018800003F007038B4240F08B80236813F0020FB4
:1018900017D013F0040F04D0454A936843F4E05383
:1018A0009360236813F0080F04D0414A936843F40F
:1018B000604393603E4A936823F0F003A1680B43B2
:1018C0009360236813F0010F32D06368012B21D09D
:1018D0009A1E012A25D9364A126812F0020F61D0E9
:1018E00033498A6822F0030213438B60FFF7F6F94D
:1018F00006462F4B9B6803F00C036268B3EB820F24
:1019000016D0FFF7EBF9801B41F288339842F0D9EB
:10191000032042E0264A126812F4003FE0D1012081
:101920003BE0234A126812F0007FD9D1012034E055
:101930001E4B1B6803F00703AB4207D9EAB21B4BEF
:101940001A701B6803F00703AB422DD1236813F014
:10195000040F06D0164A936823F4E053E1680B4362
:101960009360236813F0080F07D0114A936823F49B
:101970006043216943EAC1039360FFF71FFF0C4BEB
:101980009B68C3F303130B4AD35CD8400A4B18601F
:101990000A4B1868FFF756F9002070BD0120704708
:1019A0000120FAE70120F8E70120F6E7003C0240B9
:1019B00000380240EC9F02080000002008000020D0
:1019C0002DE9F04782B00546884617461E46FFF7C8
:1019D00085F90A9B1B1A03EB0609FFF77FF982467C
:1019E0002B4B1B68C3F3CB3309FB03F301932B6829
:1019F0009C6838EA04030CBF4FF0010C4FF0000C58
:101A0000BC4540D0B6F1FF3FF1D0FFF767F9A0EB3E
:101A10000A0048450AD2B9F1000F07D0019A02B175
:101A20004A46019B013B01939146E0E72A685368CF
:101A300023F0E00353606B68B3F5827F0BD0AB6A91
:101A4000B3F5005F14D0012385F85130002385F8E9
:101A50005030032018E0AB68B3F5004F02D0B3F567
:101A6000806FECD12A68136823F040031360E6E727
:101A70002A68136823F4005313602A68136843F438
:101A800000531360DFE7002002B0BDE8F08700BF1D
:101A90000000002010B584B00446164B1868164BA1
:101AA000A3FB0030400D4FF47A7303FB00F003906A
:101AB0006368B3F5827F0BD0039BBBB1039B013BF3
:101AC000039323689B6813F0800FF5D100200EE08C
:101AD00000920B46002280212046FFF771FF30B1B3
:101AE000636D43F020036365032000E0002004B031
:101AF00010BD00BF00000020819F5E1600285AD054
:101B000010B50446436A33B94368B3F5827F05D004
:101B10000023C36102E00023036143610023A36249
:101B200094F85130002B40D0022384F851302268C1
:101B3000136823F040031360636803F48273A268A0
:101B400002F404421343E26802F400621343226980
:101B500002F002021343626902F001021343A26918
:101B600002F400721343E26902F038021343226A5E
:101B700002F080021343A26A02F400522168134368
:101B80000B60638B03F00403626A02F010022168A9
:101B900013434B602268D36923F40063D3610020B0
:101BA0006065012384F8513010BD84F85030204620
:101BB000FEF78EFFB8E7012070472DE9F04383B0B0
:101BC0001D4690F85030012B00F0D1800446884625
:101BD0009146012380F85030FFF780F8074694F8CB
:101BE0005160F6B2012E40F0AF80B8F1000F00F066
:101BF000AC80B9F1000F00F0A880032384F85130C5
:101C000000236365C4F83080A4F83490A4F83690BB
:101C1000A363A387E38763642364A368B3F5004FDA
:101C20001ED023681A6812F0400F03D11A6842F0E0
:101C300040021A60E368B3F5006F1CD0636813B10B
:101C4000B9F1010F52D1226B236812781A73236BFA
:101C500001332363E38E9BB2013B9BB2E38645E0F5
:101C60002268136823F0400313602268136843F46A
:101C700080431360D5E7636813B1B9F1010F16D142
:101C8000226B23681288DA60236B02332363E38EAE
:101C90009BB2013B9BB2E38609E0FFF71FF8C01B34
:101CA000A84202D3B5F1FF3F59D1002D59D0E38EA0
:101CB0009BB2002B33D023689A6812F0020FECD04D
:101CC000226B1288DA60236B02332363E38E9BB2AC
:101CD000013B9BB2E386EAE7FFF700F8C01BA8428E
:101CE00002D3B5F1FF3F3ED1002D3ED0E38E9BB233
:101CF000ABB123689A6812F0020FEDD0226B127814
:101D00001A73236B01332363B4F836C01FFA8CFCBB
:101D10000CF1FF3C1FFA8CFCA4F836C0E6E73A460B
:101D200029462046FFF7B6FE08B120236365A36865
:101D300033B901932368DA6801929B680193019B90
:101D4000636D13B9002600E00226012384F85130A8
:101D5000002384F85030304603B0BDE8F0830326FA
:101D6000F3E70326F1E70326EFE70326EDE7022674
:101D7000F1E7000038B590F85030012B61D00446EF
:101D8000012380F8503090F85150EDB29D4252D16D
:101D9000002951D0002A4FD0032380F8513000236E
:101DA000436501638286C2868363436403648387D9
:101DB000C3878368B3F5004F2AD0A36C224A1A6404
:101DC000A36C224ADA63A36C214ADA64A36C002272
:101DD0001A652268E38E9BB20C32216BA06CFFF770
:101DE000E7F80146F8B923681A6812F0400F03D1EA
:101DF0001A6842F040021A602268536843F02003D8
:101E000053602268536843F0020353600D4613E0A9
:101E10000268136823F0400313600268136843F4F8
:101E200080431360C9E7636D43F0100363650123CA
:101E300084F8513000E00225002384F85030284611
:101E400038BD0225FBE700BF571E0008851E0008AD
:101E5000631E0008704708B5806BFFF7FBFF08BDE5
:101E6000704708B5806B0268536823F00303536022
:101E7000436D43F010034365012380F85130FFF7B1
:101E8000EFFF08BD30B583B00546846BFEF726FF33
:101E90002B681B6813F4807F23D1024621684B68AE
:101EA00023F020034B6021684B6823F002034B6052
:101EB00064212046FFF7EEFD18B1636D43F0200367
:101EC0006365A36833B901932368DA6801929B685C
:101ED0000193019B0023E386012384F85130636D55
:101EE00023B9204600F028F803B030BD2046FFF7A4
:101EF000B7FFF9E738B5141AA3EB010C0CF1010C8C
:101F000004FB0CCC4FEA4C0400F0B6F8084D00225C
:101F100010212846FFF750FA01224FF4807128461D
:101F2000FFF74AFAA2B204990248FFF723FF38BD2F
:101F3000000002404805002008B501221021044895
:101F4000FFF73AFA034B18681BF0BDFD08BD00BF50
:101F5000000002408484002000B583B08C46084B0A
:101F600018600092B1F90630B1F90420B1F90210FD
:101F7000BCF90000FFF7BEFF03B05DF804FB00BF33
:101F80008484002038B50B4D43F6487300220A497B
:101F900028461BF0A7FC094C20461BF079FC872340
:101FA0002380F0236380064B6361E56020461BF0CD
:101FB000A7FC38BD88840020A405002034840020BC
:101FC000591F000810B582B08DF807000F4C002291
:101FD0004FF480712046FFF7EFF9002210212046D0
:101FE000FFF7EAF9FF2301220DF107010848FFF787
:101FF000E4FD012210212046FFF7DEF901224FF413
:1020000080712046FFF7D8F902B010BD00000240F1
:102010004805002070B582B00546154C00221021FD
:102020002046FFF7C9F92B0A8DF80730114EFF2320
:1020300001220DF107013046FFF7BFFD01221021FB
:102040002046FFF7B9F9002210212046FFF7B4F926
:102050008DF80750FF2301220DF107013046FFF7ED
:10206000ACFD012210212046FFF7A6F902B070BD99
:102070000000024048050020F8B507460D46164608
:102080001C462A20FFF79EFF07F1340080B2FFF7BD
:10209000C1FF06F1340080B2FFF7BCFF2B20FFF731
:1020A00091FF05F1280080B2FFF7B4FF04F128008A
:1020B00080B2FFF7AFFF2C20FFF784FFF8BD0000D0
:1020C00010B582B08DF807000C4C0022102120467C
:1020D000FFF772F900224FF480712046FFF76CF988
:1020E000FF2301220DF107010548FFF766FD0122DC
:1020F00010212046FFF760F902B010BD0000024039
:102100004805002010B582B08DF807000C4C002265
:1021100010212046FFF750F901224FF4807120462C
:10212000FFF74AF9FF2301220DF107010548FFF7E8
:1021300044FD012210212046FFF73EF902B010BDF8
:10214000000002404805002010B50C46FFF7B8FF1C
:10215000E0B2FFF7D7FF10BD08B5024B187AFFF7C2
:10216000AFFF08BDA484002010B5094C0022022155
:102170002046FFF721F91420FEF7B6FD01220221C7
:102180002046FFF719F91420FEF7AEFD10BD00BF81
:10219000000002402DE9F04180460E4617461D46DC
:1021A0001B4CA07AFFF78CFFA07B4044C0F30720B4
:1021B000FFF7A8FFA07B4044C0B2FFF7A3FFA07BBE
:1021C0003844C0F30720FFF79DFFA07B3844C0B21E
:1021D000FFF798FF207BFFF773FFE07B3044C0F3ED
:1021E0000720FFF78FFFE07B3044C0B2FFF78AFF84
:1021F000E07B2844C0F30720FFF784FFE07B2844FE
:10220000C0B2FFF77FFFFFF7A7FFBDE8F08100BF77
:10221000A4840020F0B583B00646204B1A885B8862
:10222000013B013A9BB292B200210846FFF7B2FF90
:102230001B4C002210212046FFF7BEF801224FF46C
:1022400080712046FFF7B8F8002719E0330A8DF8AF
:102250000730144DFF2301220DF107012846FFF737
:10226000ACFC8DF80760FF2301220DF10701284621
:10227000FFF7A3FC0134094B1B88A342E6D80137C2
:10228000064B5B88BB4201D90024F4E701221021F0
:102290000348FFF791F803B0F0BD00BFA48400200D
:1022A000000002404805002008B5224B2A225A812E
:1022B0002B229A812C221A81032810D8DFE800F003
:1022C00002101E2C1B4B87221A80F0225A803422C7
:1022D0009A732822DA7300213620FFF735FF08BDF4
:1022E000144BF0221A8087225A8028229A733522B2
:1022F000DA7360213620FFF727FFF0E70D4B8722C6
:102300001A80F0225A8035229A732822DA73C0216B
:102310003620FFF719FFE2E7064BF0221A808722EA
:102320005A8028229A733422DA73A0213620FFF7CC
:102330000BFFD4E7A484002008B5FFF715FF782031
:10234000FEF7D2FC1120FFF7BBFE7820FEF7CCFC95
:102350003620FFF7B5FE0020FFF7D4FE3A20FFF746
:10236000AFFE0520FFF7CEFE2120FFF7A9FEB22029
:10237000FFF7A6FE0520FFF7C5FE0520FFF7C2FE0A
:102380000020FFF7BFFE3320FFF7BCFE3320FFF72E
:10239000B9FEB720FFF794FE2320FFF7B3FEBB2062
:1023A000FFF78EFE2220FFF7ADFEC020FFF788FE6C
:1023B0002C20FFF7A7FEC220FFF782FE0120FFF7C7
:1023C000A1FEC320FFF77CFE1320FFF79BFEC42075
:1023D000FFF776FE2020FFF795FEC620FFF770FE80
:1023E0000F20FFF78FFED020FFF76AFEA420FFF733
:1023F00089FEA120FFF786FED620FFF761FEA1200F
:10240000FFF780FEE020FFF75BFE7020FFF77AFE0B
:102410000620FFF777FE0C20FFF774FE0820FFF779
:1024200071FE0920FFF76EFE2720FFF76BFE2E20BE
:10243000FFF768FE3420FFF765FE4620FFF762FED7
:102440003720FFF75FFE1320FFF75CFE1320FFF736
:1024500059FE2520FFF756FE2A20FFF753FEE12004
:10246000FFF72EFE7020FFF74DFE0420FFF74AFE17
:102470000820FFF747FE0920FFF744FE0720FFF77B
:1024800041FE0320FFF73EFE2C20FFF73BFE4220DB
:10249000FFF738FE4220FFF735FE3820FFF732FE07
:1024A0001420FFF72FFE1420FFF72CFE2720FFF744
:1024B00029FE2C20FFF726FE2920FFF701FE002031
:1024C000FFF7F2FE4FF6FF70FFF7A4FE08BD08B558
:1024D000034610B12BB1186908BD1BF0AFFA0346D3
:1024E000F8E71846F8E708B5034610B12BB158696C
:1024F00008BD1BF0A3FA0346F8E71846F8E708B54D
:10250000034610B12BB1D86908BD1BF097FA0346FA
:10251000F8E71846F8E708B5034610B12BB1186A7A
:1025200008BD1BF08BFA0346F8E71846F8E708B534
:10253000034608B1986808BD1BF080FA0346F9E726
:1025400008B5034638B153B1D3F854010028D4BFBD
:102550000020012008BD1BF071FA0346F3E70020BC
:10256000F8E7806858B1837E03F03F038B4205D9BA
:10257000C06801EB410100EB81007047002070470B
:10258000037E13F0040F4FD110B50446037A233BAA
:10259000012B01D8012010BD4FF48041406801F0AB
:1025A0000EF90028F7D0237A113B1B2BF3D801A298
:1025B00052F823F0252600082526000825260008C5
:1025C00025260008252600082526000825260008BF
:1025D00025260008252600082526000825260008AF
:1025E000972500089725000825260008972500084C
:1025F000972500082526000825260008252600081E
:10260000252600089725000897250008972500082B
:10261000972500082526000825260008972500088C
:10262000252600080020B6E70020704710B50C46AC
:1026300008B1006803E04B68186800E0006810B15A
:102640000369002BFAD060B1036963B10023E36032
:10265000036921469847237E13F0010F05D101201D
:1026600010BD0120FCE70120FAE70020F8E7F8B5EB
:10267000064600F0FBFA58B1006883680BB1317A66
:102680009847337E13F0020774D113F0010F5BD12A
:1026900000217068FFF765FF0446002511E06368BC
:1026A000F360236830469847337E13F0020763D106
:1026B00013F0010F48D1013529467068FFF751FF2B
:1026C00004467CB12368002BF5D0237A94F90820C6
:1026D000002AF0DA802BE2D023F08003327A934292
:1026E000E9D1DCE731460020FFF7A0FF074620B123
:1026F00000217068FFF735FF0446002511E063688C
:10270000F360236830469847337E13F002021BD1F2
:1027100013F0010F32D1013529467068FFF721FF10
:1027200004467CB1012F0DD12368002BF3D0227A0F
:1027300094F90830002BEEDB002AE0D0337A9A427D
:10274000E9D1DCE7012F01D03846F8BD73685B683A
:10275000002BF9D03046FFF713FF0028F4D0736840
:102760005B6873603046FFF782FF07460128EBD0B5
:102770000027E9E70127E7E70127E5E71746E3E751
:1027800018B310B588B0019002908DF80C1000239A
:10279000049305929DF81C2063F300028DF81C2021
:1027A000D2B263F382028DF81C20D2B263F34102ED
:1027B0008DF81C20064C2368069301A82060FFF7C3
:1027C00056FF069B236008B010BD0120704700BF74
:1027D000B48400200068704740687047007A00F0B9
:1027E0007F00704700697047C0687047084B1B68DE
:1027F00004E01A7E42F001021A765B6933B15A682E
:102800008242F6D01A688242F7D1F2E7704700BFE1
:10281000B48400202DE9F04104460F4616461D46BB
:1028200001F0F2F9A1688B7E03F03F02013262F3FE
:1028300005038B76D4F8088098F81A1001F03F0150
:1028400001EB41018900D8F80C001CF05BFBC8F8D3
:102850000C00A368DA684AB39B7E03F03F0303EBE6
:1028600043039B000C3BD750A368DA68997E01F0C4
:102870003F0101EB41039B000C3B13441E72A26815
:10288000D368927E02F03F0202EB420292000C3AC1
:102890001A445560A368D8689B7E03F03F0303EB9E
:1028A00043039B000C3B1844BDE8F081FEE708B5EC
:1028B000037A013BDBB20F2B02D8FFF793FF08BD71
:1028C0000020FCE708B5027AA2F11403DBB2022B68
:1028D00005D9182A03D0172A01D0192A02D1FFF7E7
:1028E00081FF08BD0020FCE7037A132B00D070475E
:1028F00010B50C46FFF776FFB0F90010A142B8BF43
:102900002146018010BDF8B5054600201BF0F4F803
:1029100004460026374605E02646274620461BF09B
:10292000EBF804465CB1204600F0A6F9236DAB42FB
:10293000F4D102280ED00428EED02646EEE70FB1DF
:102940003846F8BD0EB13746FAE700201BF0D4F840
:102950000746F5E72746F3E72DE9F047037F13F035
:10296000010F6FD106468A469146C5684FF00108AF
:102970000027E5B1012357B32BB129463046C8479C
:102980000546874269D0002DF3D0286800F024FF67
:1029900010F0800FEDD12C68ECB10121204600F041
:1029A0000EFFC0B9204605F0EAFB0446F4E7337F8A
:1029B00013F0080F01D1002F49D1B8F1000F43D017
:1029C0003046D04705464FF000084346D3E7002D78
:1029D00040D02F46D0E72CB10121204600F0EFFE79
:1029E0000028C6D1F368AB423AD08BB11C683046A0
:1029F000FFF789FF02460F212046FFF7C1FE01289D
:102A000002D04FF000081FE0F368186802F0FDFAEA
:102A1000F5602C683046FFF776FF02460E2120460F
:102A2000FFF7AEFE012802D04FF000080CE0F3687B
:102A3000186802F0EAFA3369ABB1304698474FF0B4
:102A4000010801E04FF000084046BDE8F0874FF074
:102A50000008F9E74FF00008F6E74FF00008F3E749
:102A60004FF00008F0E74FF00108EDE708B520212E
:102A700001481CF031F808BDEC870020014B1868B4
:102A8000704700BFB884002010B50446054A0649C7
:102A9000FFF762FF63691BB110B901212046984717
:102AA00010BD00BF75EB010865EB010810B50446C9
:102AB000054A0649FFF750FF63691BB110B90021B1
:102AC0002046984710BD00BF7DEB01086DEB010863
:102AD00038B50446037FC3F3C00543F0080303770A
:102AE000DBB213F0040F06D1FFF7CEFF237F65F3AF
:102AF000C303237738BDFFF7D9FFF7E7A8B370B555
:102B00000C4605461CF02EF8014639B10B68A3426D
:102B10001ED028461CF02EF80146F6E7204600F0AD
:102B20005DFE30B1A3689B681BB1DB681B68A342E4
:102B30000FD0A36883B1A3689D6028461BF0F3FF04
:102B4000064668B1046028461CF00CF8864208D09E
:102B500070BDFFF7BDFFECE7204601F055F8EAE74E
:102B6000FEE72846FFF7B4FFF2E7704770B5064668
:102B700000F034FE002849D00546C36813B11B6835
:102B8000B34213D0EB6813B11B68B34230D0284670
:102B90001BF0E8FF0446002C38D02368B3422AD04B
:102BA000214628461BF0E6FF0446F4E7037F13F0B6
:102BB000010F03D0037F6FF30003037728461BF058
:102BC000D1FFEB68834203D02846FFF781FFD9E7A6
:102BD00028461BF0CBFFEB688342F5D11C682846E2
:102BE000FFF791FE02460F212046FFF7C9FDC9E716
:102BF0000023EB60CBE7214628461BF0C2FF2046AE
:102C00001CF064F9B3680BB100229A6070BD18B172
:102C1000C06808B1006870477047F8B170B50446E5
:102C2000037FC3F340038B4213D0037F61F341035F
:102C30000377FFF7ECFF054658B1E3681E682046AE
:102C4000FFF761FE02460E213046FFF799FD01288D
:102C500000D070BD284602F0D8F9FAE7704718B1E5
:102C6000007FC0F34000704700207047014B186898
:102C7000704700BFBC84002010B10368187870470B
:102C80000020704710B50C4630B30346427942F03D
:102C900002024271254A1268824206D01A681278EE
:102CA000013AD2B2012A04D910BD214A0021116093
:102CB000F4E714B11A6BA24201D100221A6314B1D5
:102CC0005A6AA24201D100225A6214B19A6AA242FF
:102CD000EAD100229A62E7E700201AF00DFF03E034
:102CE000002383621AF008FFD8B1437943F002034E
:102CF000437103681B78013BDBB2012BF2D814B19E
:102D0000036BA34201D10023036314B1436AA342BE
:102D100001D100234362002CE2D0836AA342E1D1B7
:102D2000DEE7034B00221A60BEE700BFBC84002030
:102D3000C084002010B5044643796FF3000343714B
:102D40001AF0F4FEA0641AF0F1FE606410BD0346B0
:102D500050B102681278012A0AD0032A08D04FF62F
:102D6000FF730B804B80704700230B804B807047B4
:102D7000B3F908200A80B3F90A304B807047034644
:102D800050B102681278012A01D0032A06D193F8C3
:102D9000400000F00F00704700207047002070478F
:102DA000034638B102681278012A01D0032A02D101
:102DB000D86A704770470020704700230B804B8013
:102DC000034658B102681278012A01D0032A05D1BE
:102DD000B3F914200A80B3F916304B80704718B14C
:102DE000437943F00803437170470000014B1868B2
:102DF000704700BFC08400200246E0B1032907D01D
:102E00000C291AD1B0F922301268517E00200FE04F
:102E1000B0F92030F8E7184400B2C1F1640202FBB7
:102E200003F3074A82FB03C2DB17C3EB62131BB237
:102E3000002BF0D17047002070470020704700BF82
:102E40001F85EB5138B505460C46084608F0FAFEDA
:102E500021224FF48031284604F0E4FCC0B2E07037
:102E600002283CD831224FF48031284604F0DAFCA5
:102E7000C0B284F82200022839D845224FF48031AC
:102E8000284604F0CFFCC0B284F83600022844D8AB
:102E900060224FF48031284604F0C4FCC3B2FC2BFE
:102EA0000CD8E378C0B200FB03F31B0AE37000FB0D
:102EB00003F31B0A84F8223084F83630E3782BB908
:102EC00094F8223013B994F8360038B10B224FF43D
:102ED0008031284604F0A6FC2080012038BD202245
:102EE0004FF48031284604F09DFCA080BAE73222DE
:102EF0004FF48031284604F095FC00B2208400286D
:102F000003DC002384F82230B7E730224FF480310D
:102F1000284604F087FCE083AFE740224FF480317D
:102F2000284604F07FFC00B2E085002803DC002383
:102F300084F83630ACE743224FF48031284604F061
:102F400071FCA08644224FF48031284604F06AFCCC
:102F5000A0859DE770B5A4B004460D4620AA22A91D
:102F600003F09CFC22A81BF03BF818B920A81BF02A
:102F700037F828B112A92046FFF764FF012801D0D5
:102F800024B070BD2946684601F0A4FA1B4B01939A
:102F90000223029312AB04934FF480330D9322A8C3
:102FA0001BF01EF8B8B920A81BF01AF80028E7D0CB
:102FB00020AE03966A461A212046FFF7E1FB0396EE
:102FC000324612A9284608F065FE6A461B212046B3
:102FD000FFF7D6FBD4E722AE03966A461A212046B5
:102FE000FFF7CEFB324612A9284608F053FE6A4688
:102FF0001B212046FFF7C4FBD5E700BF04A0020851
:103000002DE9F041A2B00646FFF7E8FB0546304641
:10301000FFF7E0FB0446122D07D0152D66D0182DC2
:1030200000F0F98022B0BDE8F0813046FFF7DAFB0E
:1030300005460378022BF5D017220021204604F024
:10304000F1FB10B102232B70ECE70B22002120468C
:1030500004F0E8FB07B268220021204604F0E2FBFE
:10306000064669220021204604F0DCFBB4F9141066
:10307000ADF84010B4F91620ADF84220B4F918E0CC
:10308000ADF844E0B4F91AC0ADF846C0B3B2C91AFD
:10309000ADF840107344ADF8443080B2121AADF868
:1030A00042206044ADF846003A4610A968681BF01B
:1030B000F7F810B901232B70B4E721220021204634
:1030C00004F0B0FBC0B2FC2802D801232B70A9E7A2
:1030D00067220021204604F0A5FB10F0FF0F02D16B
:1030E00000232B709EE701232B709BE73046FFF7F0
:1030F000E9FB064602A808F0A5FD3422002120467F
:1031000004F090FB28B19DF82B3043F001038DF8BB
:103110002B3002AF3A460021204600F097FE68228D
:103120000021204604F07EFB05466922002120464E
:1031300004F078FBB4F914C0ADF800C0B4F916106F
:10314000ADF80210B4F91830ADF80430B4F91AE053
:10315000ADF806E0AAB2ACEB020CADF800C01A4420
:10316000ADF8042083B2C91AADF802107344ADF86B
:103170000630314610A801F0ADF9654B11930025DA
:1031800012951497CDF84CD01D9510AA1A212046FF
:10319000FFF7F6FA17222946204604F043FB20B138
:1031A000BDF908309BB92B4600E00023069F1D4661
:1031B0000BB1002306936A4602A9304608F06AFD67
:1031C0003DB910AA1B212046FFF7DAFA2AE70123AE
:1031D000ECE718201BF0AEFE05460023BDF90820E1
:1031E00004F1140108F07AFC04F59071284608F007
:1031F0004FFA002FE5D000238DF80B308DF82A30E0
:103200008DF832308DF83E3006976A4602A9304676
:1032100008F040FDD5E73046FFF754FB0546014670
:103220002046FFF797FE17220021204604F0FAFA05
:1032300000285FD134220021204604F0F3FA002850
:103240003FF4F0AE02AF384608F0FCFC00268DF8E3
:103250000B608DF822608DF832608DF83E603A4642
:103260003146204600F0F2FD68223146204604F047
:10327000D9FA804669223146204604F0D3FAB4F9DF
:103280001410ADF80010B4F91620ADF80220B4F90E
:1032900018E0ADF804E0B4F91AC0ADF806C01FFAA2
:1032A00088F3C91AADF800107344ADF8043080B249
:1032B000121AADF802206044ADF80600294610A8A5
:1032C00001F008F9124B1193012312931497CDF8D2
:1032D0004CD01D9610AA1A212046FFF751FA6A46D3
:1032E0003946284608F0D6FC10AA1B212046FFF7D5
:1032F00047FA97E604F5907008F020FA0646002891
:1033000098D008F035FA30461BF076FE92E700BF01
:1033100004A002082DE9F0410C464D6825B328466B
:1033200002F0A6FE0646284602F040FE0746B5F823
:10333000168010220021284604F074FA18FA80F34F
:103340009BB2DB1B9AB2E382531E6383AF8A1222C5
:103350000021284604F066FA17FA80F39BB2981B06
:1033600083B2A082013B23830223E36141F2020383
:10337000E36115B143F20203E3611DB1E36943F474
:103380004073E361E36943F00402E26143F0140235
:10339000E26143F03402E26143F07403E36143F419
:1033A0000063E36115B143F40043E361BDE8F081DC
:1033B0002DE9F04F8DB082460691008C099088422D
:1033C00008D0AAF820100A460146504604F05DF8DD
:1033D000089010B90DB0BDE8F08F4FF420701BF0CD
:1033E000A9FD83464FF420711BF0F7FE0026B1467D
:1033F000CDF814A03DE011680A88BAB3C2F30D00FD
:10340000662801D00831F7E712F4004F2BD112F4EF
:10341000804F03D14B680A93012327E01CF0CEFCB8
:103420000A90F9E711F4004F67D111F4804F04D1ED
:1034300057F822300A93012318E01CF0BFFC0A90D1
:10344000F9E7C1F30D00662810D111F4004F56D1F1
:1034500011F4804F03D113680A93012306E01CF096
:10346000ADFC0A90F9E7022300E02346012B48D087
:103470000136059B5B8CC3F3C503B34240F2C380A6
:10348000B9F11F0F00F29480DDF81480D8F80C50C9
:10349000F40005EBC6070797786820F07F4003F03B
:1034A000F2FF82460490D8F80C302344586820F08C
:1034B0007F4004F01FF90290069B3AEA0303D7D13C
:1034C000FB7913F00203D3D12A5991884FF6FF708C
:1034D000814290D0D479002CC7D0012CB1D9176883
:1034E00007EB840500229442C0D935F81210C1F3CD
:1034F0000D00662896D00132F5E70223B6E70223D5
:10350000B4E7DDF82880002303930B96029E20E0A9
:103510000134A14518D904EB84050BEB85056F68D0
:10352000384603F0B0FF0290384604F0E3F82A89E9
:10353000D8F8003033F80A309A42E9D18642E7D110
:10354000049B029A9342E3D8A1450FD0039B013319
:103550000393D8F80030039A4FEA420A33F8123046
:1035600023B3B9F11F0F1FD80024D2E7D8F80C10ED
:1035700009EB89020BEB82032BF82210D8F81020FC
:103580005A80D8F80820DA60D8F8002032F80A20EB
:103590001A81D8F804201A61079A5268C2F31702F8
:1035A0005A6009F10109D1E70B9E61E70B9E5FE7C5
:1035B000DDF814A00024099E069F0EE004EB8405AC
:1035C0000BEB8505686804F095F8014600953B46CD
:1035D0003246504604F09CF90134A145EED85846D5
:1035E0001BF00AFD089B012B13D0089B032B14D062
:1035F000089B022B7FF4EEAE504601F006FD5046CC
:1036000000F077FFE6E6DDF814A00024099E069F8F
:10361000E3E7504601F0F9FCDCE64FF6FF724FF4A9
:103620007021504604F036FAD4E6000008B5124B7B
:103630001B7803B108BD1BF01DFC1CF073FF1BF0D1
:103640002FF91AF07FFBFFF711FA06F0C9F803F023
:10365000C9FE4FF4AE7109481BF03EFA58210848E4
:103660001BF03AFA05F08AFA09F00AF810F0BEFAEF
:10367000014B01221A70DDE7C4840020508700202E
:103680003088002010B50146034800F007FB0446CF
:1036900000F0A3FB204610BD04A00208F0B585B0E1
:1036A00004460D4601F012F8064615F0010718D140
:1036B000E3692B43E361C7B9204601F007F8B04244
:1036C00002D115F0C07F07D0204604F058FD01F06C
:1036D00017F8204601F014F815F0100F09D105B0C5
:1036E000F0BD204601F091FCE2E7204601F08DFCA0
:1036F000E2E702AA6946204603F0D0F86946204670
:1037000001F05BFC02A9204601F057FCE7E770B529
:1037100084B004460D4600F0D9FF064615F0100FA0
:1037200015D1E36923EA0503E36115F0010F1CD10C
:10373000204600F0CBFFB04202D115F0C07F04D08C
:10374000204604F01CFD00F0DBFF04B070BD02AAAF
:103750006946204603F0A2F86946204601F02DFC98
:1037600002A9204601F029FCDBE7204601F04DFCD0
:10377000204600F0ABFF0028DAD0204604F0FFFC22
:1037800000F0BEFF204600F0BBFFD1E708B5038C78
:1037900043EA010231EA030300D108BD1146FFF7F5
:1037A00007FEFAE708B5028CB0F9203023EA0101E0
:1037B00089B28A4200D108BDFFF7FAFDFBE7C36971
:1037C00031EA03030CBF012000207047C3690B429C
:1037D00014BF012000207047008C7047806800B142
:1037E00080687047F0B585B00E460846FEF7F6FFD4
:1037F00004463046FEF7F0FF0546012C26D0082C83
:1038000029D0032C4CD02A2C4ED00D2C5AD00E2C63
:1038100000F02A81092C00F058810A2C00F059810F
:103820000F2C00F06D81292C00F06E81222C00F00D
:103830008B81132C00F0AC81152C03D0182C01D0F7
:10384000122C06D13046FFF7DBFB02E02021FFF708
:103850009DFF05B0F0BD2021FFF7A4FF3046FEF725
:10386000C1FFFFF79DFA0028F3D108212846FFF792
:10387000A6FF0028EDD02846FFF7AEFF10F0010F9D
:1038800009D101212846FFF781FF00221C2128468B
:10389000FEF776FFDDE701212846FFF783FFF4E717
:1038A0002021FFF77FFFD4E704F0A9FC064600249F
:1038B000B442CED2AB681B6853F8240000F020FF5E
:1038C0000134F5E70821FFF77AFF00283ED14FF4D5
:1038D00001612846FFF773FF0028BAD0284600F0A0
:1038E00056FA0028B5D1284602F0C2FB0746284602
:1038F00002F030FC04463046FEF774FF0378122BCA
:1039000042D0112B54D0132B66D0142BA1D12846B2
:1039100002F00AFB10F0030F00F09080002F02DC91
:10392000002C40F38B80284602F016FB84B2284618
:1039300000F088FF01460028C0F29480A4EBA101AA
:10394000002209B2284602F053FF82E73046FEF714
:1039500049FF0478132C0AD0112C08D0142C01D064
:10396000122C08D101212846FFF71CFF03E001219A
:103970002846FFF70BFF0A2C3FF46BAF00221C21F7
:103980002846FEF7FDFE64E7284602F0FAFA84B204
:10399000284600F05FFF0146002807DB04EBA10189
:1039A000002209B2284602F037FF52E7C11CF5E7B2
:1039B000284602F0E6FA84B2284600F04BFF0146A2
:1039C000002807DBA4EBA101002209B2284602F07F
:1039D00023FF3EE7C11CF5E7284602F0A5FA10F0E8
:1039E000030F15D0002F01DC002C11DD284602F05A
:1039F000B3FA84B2284600F025FF014600281BDBFD
:103A000004EBA101002209B2284602F0F1FE20E7F2
:103A1000284602F0B6FA84B2284600F01BFF0146A1
:103A2000002807DB04EBA101002209B2284602F0BE
:103A3000F3FE0EE7C11CF5E7C11CE1E7284602F0E2
:103A4000A0FA84B2284600F005FF0146002807DBF3
:103A5000A4EBA101002209B2284602F0DDFEF8E63F
:103A6000C11CF5E7C11C69E74FF48061FFF7A7FEB1
:103A7000B0B92846FFF7B2FEFFF7F1F80446FFF7AA
:103A8000F5F890B1FFF7F8F8022812D0042812D008
:103A9000022194B141F008012846FFF777FED8E6ED
:103AA0000121284602F0D9FEE3E73046FEF7FFFE8B
:103AB000E8E70621EDE70621EBE72846FFF766FE7B
:103AC00008212846FFF76EFEC3E64021FFF75EFEA1
:103AD000BFE64021FFF766FE284602F01DFA0228E5
:103AE0007FF4B7AE02AA6946284602F0D7FE6946BF
:103AF000284601F062FA02A9284601F05EFAA8E61B
:103B00000E21FFF74FFEA4E60922002103F08AFEF2
:103B1000C4B20A220021284603F084FE80B200B914
:103B200014B1284600F0ECFD284604F068FB064678
:103B3000002406E0AB681B6853F8240000F0E0FDA9
:103B40000134B442F6D384E60122002103F06AFE78
:103B500007B204220021284603F064FE06B20922BF
:103B60000021284603F05EFEC4B20A220021284646
:103B700003F058FE80B238B934B942F2D1739F4293
:103B800002D09E427FF465AE284600F0B9FD60E6A3
:103B9000002100F033FC01463046FEF7A5FE58E652
:103BA00010B50C460846FEF721FE002003F022FC6B
:103BB000144A0021204604F075F9012003F01AFC94
:103BC000002120461AF0F2F82046FFF707FE10B158
:103BD0002046FEF7CBFFA3689BB1186820B11BF00D
:103BE00075F9A36800221A60A368D86820B11BF099
:103BF0006DF9A3680022DA60A0681BF067F9002362
:103C0000A36010BDFFFF0F00836803B1704710B5BC
:103C100004460C4A1368013313601C201BF038F96A
:103C2000A06068B11C211BF0D8FAA268537E43F053
:103C30000F035376A268137E43F00303137610BD7F
:103C4000FEE700BFC884002028B10068884214BF86
:103C50000020012070470020704738B504460568F1
:103C60002B6813B10360FFF7F8FF25606B6813B191
:103C700021462846984738BD00E0006820B1826997
:103C8000054B1340002BF8D018B18069C0F30F101A
:103C900070470020704700BFF0FF0F00F8B50546E1
:103CA0000C46FFF7E9FF06461BF0F2F80746F0B1B5
:103CB00031461BF092FA3D607C60D4B1A368002BC2
:103CC00047D0A5682B68002B47D06B6801336B6029
:103CD000A5686968890028681BF014F92860A36842
:103CE0001A685B6803F18043013B42F82370384651
:103CF000F8BD19F0A3FE0446F0B1C06808B3616ACC
:103D00000131616289001BF0FDF8E060636A03F134
:103D10008043013B40F823700024BC82FC82204693
:103D200019F092FE80B201383883204619F0A4FEC3
:103D300080B201387883DAE738461BF0C7F82746A7
:103D4000D5E704201BF0A4F8E0600760012363625C
:103D5000E2E72046FFF758FFB3E704201BF098F88E
:103D60002860A3681B681F60A36801225A60BEE731
:103D700010B50446006883680BB121469847236854
:103D80001B681BB123602046FFF7F2FF10BD0368DC
:103D900000E01B681BB11A7E12F0030FF9D03BB193
:103DA000187E00F00300012814BF00200120704796
:103DB00000207047036800E01B681BB11A7E12F0F8
:103DC0000C0FF9D03BB1187E00F00C00042814BF92
:103DD0000020012070470020704738B5044600F0ED
:103DE0008FFC002003F006FB204605F0DDFC20469A
:103DF000FFF733FF012003F0FDFA4FF6FF724FF497
:103E00007021204603F046FE204600F051FFFEF7E9
:103E100035FE20B105462046FFF7CCFF88B9204685
:103E200004F0ADF9054658B122462221FEF7A8FC60
:103E3000224623212846FEF7A3FC204601F0E5F8A0
:103E400038BD21462846FEF759FEE8E7F8B5054695
:103E500014460E46002940D1FF27002E4DD10B22DB
:103E60003146284603F0DEFC2080E378002B4BD15E
:103E700032223146284603F0D5FC00B2208420B11E
:103E800094F82230002B40F09D80352231462846A0
:103E900003F0C8FC00B2E08420B194F82A30002B73
:103EA00040F0B280A37E002B40F0CB8094F83630F7
:103EB000002B40F00B817EB1FC2F0DD894F836001A
:103EC00000FB07F7C7F30727E770A77684F822708F
:103ED00084F82A7084F83670F8BD602203F0A2FCE2
:103EE000C7B2022FB9D80023E370A37684F822303A
:103EF00084F82A3084F83630EEE7672231462846C7
:103F000003F090FCA070AAE721223146284603F076
:103F100089FCC0B2E0700228AAD920223146284686
:103F200003F080FC02463146284603F095FDA08050
:103F300026223146284603F075FC014618B1437A23
:103F400013F0070F16D123223146284603F06AFCEE
:103F5000E37B60F30203E373DBB213F0070F0ED1D0
:103F600027223146284603F05DFCE37B60F3C5035E
:103F7000E3737DE70A22A01D1BF074F878E7202286
:103F80003146284603F04EFC02463146284603F0EF
:103F900063FDE08022223146284603F043FC0246BE
:103FA0003146284603F058FD6081242231462846D8
:103FB00003F038FC207225223146284603F032FCFB
:103FC0002073CDE731223146284603F02BFCC0B2E6
:103FD00084F8220002287FF658AF33223146284663
:103FE00003F020FC94F8233060F3450384F8233079
:103FF00030223146284603F015FC02463146284659
:1040000003F02AFDE08340E737223146284603F0DB
:1040100009FCC0B284F82A0002287FF643AF382298
:104020003146284603F0FEFB2085362231462846DD
:1040300003F0F8FB02463146284603F00DFDA0844C
:1040400030E728223146284603F0ECFB20610028A7
:104050003FF42CAF29223146284603F0E3FBC0B2DF
:10406000A07602287FF622AF206905F0A0FE022884
:104070001AD02A223146284603F0D4FB02463146A4
:10408000284603F0E9FC20832B223146284603F022
:10409000C9FBE0762C223146284603F0C3FB0038EA
:1040A00018BF0120207701E757223146284603F048
:1040B000B9FB606155223146284603F0B3FB024646
:1040C0003146284603F0C8FC2083EFE64022314603
:1040D000284603F0A7FB00B2E08500283FF4EBAED2
:1040E00094F83630022B7FF6E6AE4522314628465C
:1040F00003F098FBC0B284F8360002287FF6DBAEEE
:1041000041223146284603F08DFB2086422231466B
:10411000284603F087FB608643223146284603F099
:1041200081FBA08644223146284603F07BFB0246F1
:104130003146284603F090FCA085BCE670B50646E3
:104140000C461546562203F06DFBC0B2A876022835
:104150003DD97CB160222146304603F063FBC3B2F7
:10416000022B35D9FC2B05D8AB7EC0B203FB00F087
:104170000012A87655222146304603F053FB024632
:104180002146304603F068FCA8815822214630467B
:1041900003F048FBA88259222146304603F042FB37
:1041A00068825A222146304603F03CFBAB7F60F325
:1041B0000203AB777CB957222146304603F032FB2D
:1041C00028605B222146304603F02CFB287770BD27
:1041D0000023AB76FBE767222146304603F022FB43
:1041E000AB7F60F3C503AB77E5E770B505460E46D8
:1041F0001446462203F016FBC0B2E072022834D9FE
:104200007EB160223146284603F00CFBC3B2022B7C
:104210002CD9FC2B05D8E37AC0B203FB00F00012C6
:10422000E072002323804FF4807363802B8BAA8A73
:104230009B1A9BB20133C3F3C03202FA83F35B10C3
:10424000A3806B8BEA8A9B1A9BB20133C3F3C03203
:1042500002FA83F35B10E38048223146284603F0DC
:10426000E1FAC0B2A07220B97EB970BD0023E3723A
:10427000FBE747223146284603F0D4FA024631468E
:10428000284603F0E9FB2081EEE767223146284605
:1042900003F0C8FA237B60F303032373E5E770B5EB
:1042A00006460D4614464E2203F0BCFAC0B22072F8
:1042B000022818D97DB160222946304603F0B2FAAF
:1042C000C3B2022B10D9FC2B05D8237AC0B203FB52
:1042D00000F00012207249222946304603F0A2FA6B
:1042E00000B2608018B970BD00232372FBE74D2235
:1042F0002946304603F096FA02462946304603F036
:10430000ABFB20804A222946304603F08BFA00B2EC
:10431000A080D8B94C222946304603F083FA0038F1
:1043200018BF0120637A60F382036372DBB260F32B
:10433000C3036372002DD6D067222946304603F0AE
:1043400071FA637A60F301036372CCE74B2229466A
:10435000304603F067FAE080DCE770B506460D46AC
:104360001446502203F05EFA00B2608000B970BDBE
:1043700053222946304603F055FAC3B22373022B69
:10438000F5D97DB160222946304603F04BFAC3B21D
:10439000022B30D9FC2B05D8227BC3B202FB03F3DE
:1043A0001B12237352222946304603F03BFA024681
:1043B0002946304603F050FB2080542229463046DF
:1043C00003F030FAA06051222946304603F02AFA61
:1043D000003818BF0120637B60F382036373002DF4
:1043E000C5D067222946304603F01CFA637B60F390
:1043F00001036373BBE700232373B8E7F8B50546F1
:104400000E46402203F00EFA04B2E4B935223146DA
:10441000284603F007FA07B2002F47D16822314639
:10442000284603F0FFF907B269223146284603F017
:10443000F9F900B2B842B8BF3846002801DD04449B
:1044400024B22046F8BD45223146284603F0EAF959
:10445000C0B2022801D80024D8E704EBD474641059
:104460000134A4B243223146284603F0DBF914FAA2
:1044700080F4A4B241223146284603F0D3F907B2B2
:1044800042223146284603F0CDF903B2002BB8BFD3
:104490005B429BB2002FB8BF7F42BFB2BB422CBF72
:1044A000E418E41924B224EAE474AFE73722314671
:1044B000284603F0B7F9C0B20228AFD938223146F6
:1044C000284603F0AFF907FA80F7BC42B8BF3C4674
:1044D00024B2A3E738B504460D4648211AF07DFE04
:1044E000256038BD836813B1B3F91600704700200A
:1044F000704730B583B00446FFF7F4FF054600234C
:10450000ADF806300DF1060213212046FEF738F90A
:10451000BDF90630AB420AD1A36863B1BDF80620ED
:10452000DA82BDF90630AB4211D103B030BD20466E
:1045300000F06BFDF0E7BDF90630002BF1D020460E
:10454000FFF762FBA368BDF80620DA82E9E72046A0
:1045500000F05BFDE9E7836813B1987E800970473E
:10456000002070472DE9F04782B004460F46904680
:104570006D22002103F056F906460FFA80F96C22ED
:104580000021204603F04EF905B2B9F1000F02D127
:10459000B5F5807F26D0B4F814A06E220021204605
:1045A00003F040F91AFA80F0ADF80400B4F816A050
:1045B0006F220021204603F035F91AFA80F0ADF899
:1045C0000600B8F1000F07D076420FFA86F94FF4D3
:1045D000803090FBF5F52DB201AB2A4649463846AE
:1045E00019F012FF02B0BDE8F08730B583B0054680
:1045F0000C46002301AA072102F002FF012807D080
:1046000020B900222146284603F081FD03B030BDC9
:10461000019BA342F5D1F3E730B583B005460C46C4
:10462000002301AA082102F0EBFE012807D020B9DF
:1046300000222146284603F071FD03B030BD019BE6
:10464000A342F5D1F3E738B504461546FFF7CDFF91
:1046500029462046FFF7E0FF38BD30B583B0054658
:104660000C46002301AA012102F0CAFE012807D04E
:1046700020B900222146284603F034FD03B030BDA6
:10468000019BA342F5D1F3E730B583B005460C4654
:10469000002301AA042102F0B3FE012807D020B9AB
:1046A00000222146284603F02BFD03B030BD019BBC
:1046B000A342F5D1F3E738B504461546FFF7CDFF21
:1046C00029462046FFF7E0FF38BD000038B5044614
:1046D0000A49FFF77BF810B10025284638BD05468A
:1046E000204603F04CFD0028F7D00A22002103F0F9
:1046F00099F880B20028F0D00125EEE7010006000D
:1047000008B590F8222042F0010280F8222003F040
:104710003AFD90F8222042F0020280F8222003F0B5
:104720003BFD406808B11BF0E8FE08BD10B504462B
:10473000002289B203F015FD2046FFF7E1FF10BD0E
:1047400070B505460C460D4A1368013313600C4ED4
:10475000D90030681AF0D6FB306068B10346074ACA
:10476000106800F10052013A43F83250044B1B68C4
:1047700003EBC202546070BDFEE700BFCC84002092
:104780003C88002070B5044615461E46002203F002
:10479000CCFC324629462046FFF755FF70BDB0F9E4
:1047A00014300B80B0F916304B80B0F918308B8084
:1047B000B0F91A30CB80704738B5044603F0DFFCFF
:1047C000D0B10546A48A838AE41AA4B201F0C4FBDE
:1047D00014FA80F4A4B212220021284603F022F831
:1047E00080B2241AA4B232220021284603F01AF81B
:1047F00080B2201A00B238BDB4F91400FBE738B516
:10480000044603F0BCFCD0B10546E48AC38AE41A2E
:10481000A4B201F0B6FB14FA80F4A4B21022002175
:10482000284602F0FFFF80B2241AA4B232220021EF
:10483000284602F0F7FF80B2201A00B238BDB4F962
:104840001600FBE70346008B9B8AC01A80B201303A
:1048500000B270470346408BDB8AC01A80B2013039
:1048600000B2704738B50546FFF7C9FF84B2284645
:10487000FFF7F0FF14FA80F000B238BDF8B5054636
:104880001222002102F0CEFF074613220021284603
:1048900002F0C8FF064632220021284602F0C2FF7D
:1048A00004462846FFF7CEFF83B2DB1B9BB29B1B5F
:1048B0009BB2600080B2181A00B2F8BDF8B5054688
:1048C0001022002102F0AEFF0746112200212846E7
:1048D00002F0A8FF064632220021284602F0A2FF7D
:1048E00004462846FFF7B6FF83B2DB1B9BB29B1B37
:1048F0009BB2600080B2181A00B2F8BD70B50646CF
:104900000C463222002102F08DFF0546214630463A
:10491000FFF745FF694209B20A46204619F06EFBCF
:1049200012220021304602F07DFF238813FA80F026
:10493000208013220021304602F074FF83B2A08849
:10494000C01AA08010220021304602F06BFF63885D
:1049500013FA80F0608011220021304602F062FFDD
:1049600083B2E088C01AE08070BD00B583B0002338
:10497000ADF804304EF20103ADF8063001AA2C2147
:10498000FDF7FEFEBDF9040003B05DF804FB000076
:104990002DE9F04F83B005460022114601F028FFB3
:1049A00032220021284602F03DFF04461322002156
:1049B000284602F037FFA4B214FA80F01FFA80FAFA
:1049C00003B2019312220021284602F02BFF14FAB1
:1049D00080F41FFA84FB23B200932846FFF7C5FF3B
:1049E0001BFA80F91AFA89F90FFA89F9284603F0B7
:1049F00006FC804616220021284602F013FFC0B2B2
:104A000001284ED00024584F6DE009220021304685
:104A100002F008FFC0B208282DD8DFE800F0052C0E
:104A20002C052C2C052C0500B5F91830B6F91420EE
:104A30009B1A01339F42B8BF1F463FB20134444521
:104A400032D2AB681B6853F8246048493046FEF701
:104A5000BDFE0028F2D13046FFF738FE0028D4D042
:104A6000B5F91830B6F914209B1A01339F42B8BF2C
:104A70001F463FB2E2E707220021304602F0D2FE95
:104A800000B20028DAD1338BB28A9B1A9BB2013371
:104A90009AB2019901FA83F39F42CFDC524417B2D4
:104AA000CCE70024304FCAE72F4B9F4252D05F44DF
:104AB0003FB24FE009220021304602F0B3FEC0B2FF
:104AC00007282CD8012303FA00F010F0930F26D00A
:104AD000B6F91830B5F914209B1A01339F42B8BFBC
:104AE0001F463FB2013444452FD2AB681B6853F8D0
:104AF00024601E493046FEF769FE0028F2D1304698
:104B0000FFF7E4FD0028D5D0B6F91830B5F9142028
:104B10009B1A01339F42B8BF1F463FB2E2E708220B
:104B20000021304602F07EFE00B20028DAD1338B3D
:104B3000B28A9B1A9BB201339AB2009901FA83F3AD
:104B40009F42CFDC5A4417B2CCE7074B9F4201D0BB
:104B500057443FB2044B9F4202D0B945B8BFB94653
:104B6000484603B0BDE8F08F01E0FFFF01000400FC
:104B700000B583B04EF20103ADF804300023ADF868
:104B8000063001AA2C21FDF7FBFDBDF9060003B09C
:104B90005DF804FB2DE9F04F83B006460022114674
:104BA00001F03AFE32220021304602F03BFE04467C
:104BB00010220021304602F035FEA4B214FA80F033
:104BC0001FFA80FB03B2019311220021304602F04C
:104BD00029FE14FA80FA1FFA8AFA3046FFF7C8FF56
:104BE0001BFA80F91AFA89F90FFA89F9304603F0AD
:104BF00006FB07460024DFF8B08013E009220021FD
:104C0000284602F00FFEC0B2032828D8B5F91A30A2
:104C1000B6F916209B1A01339845B8BF98460FFA8B
:104C200088F80134BC4231D2B3681B6853F8245071
:104C30001E492846FEF7CAFD0028F2D12846FFF794
:104C400045FD0028DAD0B5F91A30B6F916209B1ABE
:104C500001339845B8BF98460FFA88F8E1E7082273
:104C60000021284602F0DEFD00B20028D9D16B8B6E
:104C7000EA8A9B1A9BB201339AB2019901FA83F333
:104C80009845CEDC5A440FFA82F8CAE7064B98459D
:104C900005D0D0440FFA88F8C145B8BFC146484690
:104CA00003B0BDE8F08F00BF01E0FFFF010004008A
:104CB00038B504460122002102F0B4FD05B20422F9
:104CC0000021204602F0AEFD42F2D1739D4202D097
:104CD00000B2984204D12046FFF712FD012038BDF2
:104CE0000020FCE72DE9F04782460F46164699461C
:104CF00003F085FA8046002516E0BBB2A28A1A446A
:104D0000A2821FFA86FCE28A6244E282228B13446A
:104D10002383638B9C44A4F81AC00023324639468F
:104D20002046FFF7DFFF013545450FD2DAF808309E
:104D30001B6853F82540B9F1000FDED04FF48021F5
:104D40002046FEF73CFD0028D7D0ECE7BDE8F08711
:104D500080B32DE9F0410F4615461C468046FFF70B
:104D6000FAFB06469CB11DB9022E0AD0BDE8F081BF
:104D7000404603F004FA23462A463946FFF7E8FF87
:104D8000F2E7224639464046FFF7ECFBEEE7022801
:104D90000AD0002DEAD0404603F0F1F923462A4616
:104DA0003946FFF7D5FFE1E7224639464046FFF78F
:104DB000D9FBEEE77047F0B585B005460C461646C0
:104DC0001F46B1F90010ADF80010B4F902E0ADF8DB
:104DD00002E0ADF80410B4F90610ADF80610B4F90D
:104DE00004C0ADF808C0ADF80AE0ADF80CC0ADF8ED
:104DF0000E106946FFF7ACFF3B46324601A9284634
:104E0000FFF7A6FF3B46324602A92846FFF7A0FF60
:104E10003B46324603A92846FFF79AFFBDF90C30FE
:104E2000BDF908501946AB42A8BF2946BDF9042078
:104E3000BDF9000016468242A8BF0646B142A8BF8F
:104E400031462180AB42B8BF2B468242B8BF0246F2
:104E50009342B8BF1346A380BDF90E30BDF90A5086
:104E60001946AB42A8BF2946BDF90620BDF902008C
:104E700016468242A8BF0646B142A8BF31466180AD
:104E8000AB42B8BF2B468242B8BF02469342B8BF7E
:104E90001346E38005221146204619F0AFF805B00D
:104EA000F0BD2DE9F04182B004460E460121FEF727
:104EB00086FC20B10027384602B0BDE8F0810746E5
:104EC000204603F060F9054603F066F98046FDF7D9
:104ED000FEFA85420ED04046FDF705FB854209D01B
:104EE0004046FDF70CFB854204D04046FDF713FB1E
:104EF0008542E0D14FF400212046FEF767FC28BB35
:104F00002046FFF7EFFAB4F91410ADF80010B4F929
:104F10001620ADF80220B4F91830ADF80430B4F919
:104F20001A50ADF8065080B2091AADF80010121AE6
:104F3000ADF802200344ADF804302844ADF8060073
:104F40006A463146304619F077F850B10023012205
:104F500031462046FFF72FFF204603F010F90446A4
:104F600005E00746A7E7204603F009F9044614B315
:104F700001212046FEF723FC00289CD14FF400219C
:104F80002046FEF723FC0028EDD16D4604F1140302
:104F900093E8030085E80300002301222946204608
:104FA000FFF709FF2A463146304619F045F8002838
:104FB000D9D107467FE701277DE730B583B00546A5
:104FC0000C4603F0E9F8FDF7BBFA08B903B030BDB1
:104FD000B4F90030ADF80030B4F90230ADF8023069
:104FE000B4F90430ADF80430B4F90630ADF8063049
:104FF00069462846FFF755FF0028E7D0284603F00A
:10500000CBF8694604F0A4FAE0E710B582B0044694
:10501000FFF768FAB4F914C0ADF800C0B4F916107F
:10502000ADF80210B4F91820ADF80420B4F91AE074
:10503000ADF806E083B2ACEB030CADF800C0C91AC2
:10504000ADF802101A44ADF804207344ADF80630F0
:1050500069462046FFF7B1FF02B010BD2DE9F04FC1
:1050600087B004460D461646476857B31222002102
:10507000384602F0D7FB82460FFA80FB102200214F
:10508000384602F0CFFB81460FFA80F84FF48021BA
:105090002046FEF794FB00283BD0B88A824415FADC
:1050A0008AF52DB2FA8A4A4416FA82F636B23222CC
:1050B0000021384602F0B6FB80B205442DB206440A
:1050C00036B2A18A6D1A1FFA85F82DB2ADF81450C8
:1050D000E28AB21A1FFA82F916B2ADF816600DB95B
:1050E000002E58D02046FFF790FF03A92046FFF777
:1050F00056FB1FB301A93846FFF700FC002201A9A7
:1051000003A819F0CDF88246D0B9384601F0CEFF99
:1051100016E0B7F914309B44384600F01DFFABEBA6
:10512000000B5D442DB2B7F916309844384600F0B4
:1051300028FFA8EB0008464436B2B8E74FF0000A53
:10514000A38A4344A382E38A4B44E382238B98449B
:10515000A4F81880638B9944A4F81A90002332466F
:1051600029462046FFF7BEFD27B1224622213846B8
:10517000FDF706FB2046FFF748FF67B1002201A9B3
:1051800004F1140019F08CF8BAF1000F00D110B13D
:10519000384601F08BFF07B0BDE8F08F2DE9F04FE6
:1051A00085B00446FFF792FA10B105B0BDE8F08F64
:1051B000204602F0E4FF074607220021204602F0C5
:1051C00031FB814605B208220021204602F02AFB6D
:1051D000804606B2002F4ED03846FFF74FFB0090B6
:1051E0003846FFF76BFB019009F4C049B9F5005F41
:1051F00047D008F4C048B8F5005F57D06A220021B4
:10520000204602F00FFB81460FFA80FB6B22002143
:10521000204602F007FB80460FFA80FA2046FFF78F
:1052200011FB02902046FFF715FB039009F4C049DB
:10523000B9F5005F4FD008F4C048B8F5005F61D001
:105240005D441FFA85F82DB256441FFA86F936B22E
:1052500009220021204602F0E5FA10F0FF0068D094
:1052600001286ED0023807287FD8DFE800F072846A
:10527000989FB28BBFD2324629462046FFF7EEFEFA
:1052800093E725F4C043B3F5FA6FB2DCB3F57A7F48
:1052900001DDC3F57A73009A02FB03F3694A82FBCE
:1052A0000312DD17C5EB62152DB2A2E726F4C04349
:1052B000B3F5FA6FA2DCB3F57A7F01DDC3F57A733B
:1052C000019A02FB03F35F4A82FB0312DE17C6EB6F
:1052D000621636B292E72BF4C043B3F5FA6FAADC3C
:1052E000B3F57A7F01DDC3F57A73029A02FB03F30B
:1052F000544A82FB03124FEAE37BCBEB621B0FFAAB
:105300008BFB98E72AF4C043B3F5FA6F98DCB3F54A
:105310007A7F01DDC3F57A73039A02FB03F3494AEE
:1053200082FB03124FEAE37ACAEB621A0FFA8AFA97
:1053300086E716220021384602F074FAC0B201282E
:1053400005D0324629462046FFF788FE2DE7032088
:1053500088E7009B03EBD370029B03EBD3756D10C2
:10536000C5EB600518FA85F52DB232462946204670
:10537000FFF774FE19E7009B029A9D1A18FA85F54B
:105380002DB2F2E7019B03EBD370039B03EBD376C3
:105390007610C6EB600619FA86F636B2E5E7019B91
:1053A000039A9E1A19FA86F636B2DEE7009B03EBE3
:1053B000D370029B03EBD3756D10C5EB600518FA33
:1053C00085F52DB2019B039A9E1A19FA86F636B21C
:1053D000CBE7009B029A9D1A18FA85F52DB2019B26
:1053E000039A9E1A19FA86F636B2BEE7009B029A15
:1053F0009D1A18FA85F52DB2019B03EBD370039B20
:1054000003EBD3767610C6EB600619FA86F636B251
:10541000ABE7009B03EBD370029B03EBD3756D10DE
:10542000C5EB600518FA85F52DB2019B03EBD3702F
:10543000039B03EBD3767610C6EB600619FA86F66B
:1054400036B292E71F85EB5110B582B00446FFF7E4
:1054500049F8B4F914C0ADF800C0B4F91610ADF8AD
:105460000210B4F91820ADF80420B4F91AE0ADF830
:1054700006E083B2ACEB030CADF800C0C91AADF87E
:1054800002101A44ADF804207344ADF806306946A2
:105490002046FFF706FD02B010BD38B505460C46A4
:1054A000FEF7B2FBAB689C8238BD10B5B0F9142092
:1054B0000A80B0F916304B80B0F918E0A1F804E08A
:1054C000B0F91AC0A1F806C0846874B1A48A121B8E
:1054D0000A808268928A72448A808268928A9B1AC1
:1054E0004B8083689B8A6344CB8010BD00B501F478
:1054F000C04CBCF5005F0CD002F4C04CBCF5005FA2
:105500001CD09042A8BF10468842B8BF08465DF83C
:1055100004FB21F4C04CBCF5FA6FEDDCBCF57A7FDE
:1055200001DDCCF57A7C0CFB03FC0E4981FB0C1EE3
:105530004FEAEC71C1EB6E1109B2DDE722F4C04C09
:10554000BCF5FA6FDDDCBCF57A7F01DDCCF57A7C49
:105550000CFB03F3034A82FB03C2DB17C3EB6213AA
:105560001AB2CEE71F85EB5100B501F4C04CBCF573
:10557000005F0CD002F4C04CBCF5005F1CD0904220
:10558000A8BF10468842B8BF08465DF804FB21F466
:10559000C04CBCF5FA6FEDDCBCF57A7F01DDCCF5D3
:1055A0007A7C0CFB03FC0E4981FB0C1E4FEAEC716C
:1055B000C1EB6E1109B2DDE722F4C04CBCF5FA6F05
:1055C000DDDCBCF57A7F01DDCCF57A7C0CFB03F3E6
:1055D000034A82FB03C2DB17C3EB62131AB2CEE7A6
:1055E0001F85EB5190F8233003F00603062B00F0E3
:1055F00096812DE9F04F87B0044602F0C0FD0546C4
:10560000002800F08E81204600F032FD009094F8D2
:10561000233013F0040F76D02046FFF713F9064627
:105620004FF00009204600F0C1FC074694F82330F3
:1056300013F0020F00F0E5802046FFF70BF98046DB
:105640004FF0000AB9F1000F02D1BAF1000F05D0F6
:1056500000233A460099204601F0F2F82046FFF771
:10566000F1F8B04205D12046FFF7F4F8404500F0CC
:105670005A812046FFF7C9FC04A92046FFF78FF89E
:1056800002A92846FFF73AF9002202A904A818F057
:1056900007FE0746002800F03881E38A43449BB2A6
:1056A000013B638316220021204602F0BBF8C0B202
:1056B000012800F02E81A08A0644B6B2013E26835E
:1056C00004AA29212046FDF75BF82246222128461C
:1056D000FDF756F82046FFF798FC0021204601F020
:1056E00008FD002202A904F1140018F0D9FD07B941
:1056F00010B1284601F0DAFC2046FEF7FAFE012040
:1057000007B0BDE8F08F01220021204602F08AF8A0
:1057100006B242F2D1794E4514BF4FF000094FF066
:10572000010900F4C040B0F5005F36D04FF000082A
:105730002846FFF7A3F8074642F2D1739E4237D0BE
:10574000B8F1000F15D095F8233013F0040F34D0C2
:1057500026F4C04212B2B2F57A7F01DDC2F57A7248
:1057600007FB02F2714B83FB0213D617C6EB6316DD
:1057700036B202220021204602F054F80FFA80F8D7
:1057800003220021204602F04DF83B4602B241467A
:105790003046FFF7ABFE064644E726F4C043B3F5B8
:1057A000FA6F02DD4FF00008C2E74FF00108BFE7D3
:1057B0002046FFF7EDF80646DBE7012200212846E8
:1057C00002F030F800B242F2D1739842C0D13222D6
:1057D0000021204602F026F806460FFA80F8122231
:1057E0000021204602F01EF816FA80F6B6B2132207
:1057F0000021204602F016F808FA80F31E4436B263
:10580000B7E704220021204602F00CF80FFA80F8D6
:1058100042F2D17AD04514BF4FF0000A4FF0010A8E
:1058200000F4C040B0F5005F39D04FF0000B2846BF
:10583000FFF744F8019042F2D17398453AD0BBF19A
:10584000000F18D095F8233013F0020F37D028F44A
:10585000C0431BB2B3F57A7F01DDC3F57A73019AB9
:1058600002FB03F3314A82FB03124FEAE378C8EBF1
:1058700062180FFA88F805220021204601F0D2FFB5
:105880000FFA80FB06220021204601F0CBFF019B8E
:1058900002B259464046FFF767FE8046D2E628F43A
:1058A000C043B3F5FA6F02DD4FF0000BBFE74FF0D6
:1058B000010BBCE72046FFF76DF98046DBE70422C9
:1058C0000021284601F0AEFF00B242F2D1739842A7
:1058D000BDD132220021204601F0A4FF80460FFAFC
:1058E00080FB10220021204601F09CFF18FA80F86E
:1058F0001FFA88F811220021204601F093FF0BFACD
:1059000080FBD8440FFA88F8B5E7284601F0CEFBB3
:10591000C3E6208B861BB6B20136A682D0E60020F5
:1059200070470020ECE60020EAE600BF1F85EB513F
:1059300070B5054602F063FC0646002406E0AB683D
:105940001B6853F82400FFF7F3FF0134B442F6D389
:1059500095F8223013F0010F00D170BD95F8223078
:105960006FF3000385F822302846FFF73BFE2846F8
:10597000FFF714FC002EF0D00A220021284601F087
:1059800051FF80B20028E8D0084B1B688342E4D363
:1059900000F100500138064B1B6803EBC00253F8BE
:1059A0003030516828469847D7E700BFCC840020A4
:1059B0003C8800200E4B1B7803B1704710B50C4B90
:1059C00001221A7002F0DFFB044608E094F822304E
:1059D0006FF3410384F822302046FFF7A9FF94F8C3
:1059E000223013F0020FF1D1014B00221A7010BDCA
:1059F000D08400202DE9F04F85B080460D469346B7
:105A00000193FFF7D7FF002D54D0404602F0B7FBBB
:105A100007463222002101F005FF04461222002130
:105A2000384601F0FFFEA4B214FA80FA0FFA8AFA9F
:105A300010220021384601F0F5FE14FA80F90FFA21
:105A400089F932220021284601F0ECFE0646122296
:105A50000021284601F0E6FEB6B216FA80F083B2C5
:105A6000029304B210220021284601F0DBFE16FA50
:105A700080F6B3B2039336B2BBF1000F1FD00BF127
:105A8000FF32142A5AD8DFE812F022008100940075
:105A9000A200B000D000EB00FE005C001E01260159
:105AA0003C014D015301670176017E019401A5017E
:105AB000AB01BF01404602F062FB0546A5E7162296
:105AC0000021284601F0AEFEC0B2012871D0162296
:105AD0000021384601F0A6FEC0B2012800F0A381E3
:105AE000B5F914B0019B5B449B46B7F91430ABEB9E
:105AF000030B384600F0BCFA8344ABEB0A0A54446B
